:100000000C942A000C9447000C9447000C94470071
:100010000C9447000C9447000C9447000C94470044
:100020000C9447000C9447000C9447000C94470034
:100030000C9447000C9447000C9447000C94470024
:100040000C94A3050C9447000C9447000C944700B3
:100050000C94470011241FBECFE5D8E0DEBFCDBF12
:1000600010E0A0E6B0E0E0EAF8E202C005900D92F0
:10007000AA37B107D9F710E0AAE7B0E001C01D9296
:10008000AC37B107E1F70E94A6130C944E140C9400
:100090000000EF92FF920F931F937B018C0120E0F1
:1000A00030E040E05FE40E94490388238CF0C801FF
:1000B000B70120E030E040E05FE40E94C1010E940F
:1000C000A9039B01AC01205030404040504806C07D
:1000D000C801B7010E94A9039B01AC01B901CA0183
:1000E0001F910F91FF90EF900895A0E0B0E0EBE733
:1000F000F0E00C941714DC012B01FA019C91923072
:1001000008F439C1EB018881823008F433C194309E
:1001100069F4843009F02FC111969C91119789815F
:10012000981709F428C1A2E7B0E025C1843009F48A
:1001300021C18230A9F4923009F01DC19A01AD01AC
:1001400088E0EA010990AE01E90109929E0181501F
:10015000C1F7E201898111969C918923818308C1AD
:10016000923009F407C112962D903C901397EB0141
:100170008A819B811496AD90BD90CD90DC901797AD
:10018000EC80FD800E811F819101281B390BB90184
:1001900037FF04C066277727621B730B6032710537
:1001A0000CF061C0121613066CF537014801062EDB
:1001B00004C096948794779467940A94D2F721E0C8
:1001C00030E040E050E004C0220F331F441F551FB1
:1001D0006A95D2F721503040404050402E213F21B7
:1001E00040235123211531054105510521F021E01E
:1001F00030E040E050E079018A01E628F72808293C
:1002000019293CC0232BD1F1260E371E350146019A
:10021000062E04C096948794779467940A94D2F734
:1002200021E030E040E050E004C0220F331F441FC3
:10023000551F6A95D2F721503040404050402A2146
:100240003B214C215D21211531054105510521F04E
:1002500021E030E040E050E059016A01A628B728CB
:10026000C828D9280BC0821593052CF01C01AA249C
:10027000BB24650103C0EE24FF24870111969C91E5
:10028000D20111968C91981709F445C0992339F041
:10029000A80197012A193B094C095D0906C0A6016E
:1002A00095012E193F09400B510B57FD08C01182D3
:1002B0003382228224833583468357831DC081E0A5
:1002C00081833382228288279927DC01821B930B4A
:1002D000A40BB50B84839583A683B7830DC0220F2F
:1002E000331F441F551F24833583468357838281E0
:1002F000938101979383828324813581468157813D
:10030000DA01C9010197A109B1098F5F9F4FAF4F72
:10031000BF4328F30BC0918333822282EA0CFB1C7B
:100320000C1D1D1DE482F5820683178383E0808304
:10033000248135814681578157FF1AC0C901AA27F8
:1003400097FDA095BA2F81709070A070B0705695EF
:10035000479537952795822B932BA42BB52B848318
:100360009583A683B7838281938101969383828349
:10037000DF0101C0D201CD01CDB7DEB7E2E10C94BF
:100380003314A0E2B0E0E7ECF1E00C9423146983AD
:100390007A838B839C832D833E834F835887E9E048
:1003A000EE2EF12CEC0EFD1ECE010196B7010E943F
:1003B000D2048E010F5E1F4FCE010596B8010E9438
:1003C000D2048A8991E089278A8BC701B801AE01DE
:1003D000475E5F4F0E9475000E94FD03A096E6E015
:1003E0000C943F14A0E2B0E0E8EFF1E00C94231489
:1003F00069837A838B839C832D833E834F835887C5
:10040000F9E0EF2EF12CEC0EFD1ECE010196B701A6
:100410000E94D2048E010F5E1F4FCE010596B801D7
:100420000E94D204C701B801AE01475E5F4F0E942F
:1004300075000E94FD03A096E6E00C943F14A0E234
:10044000B0E0E5E2F2E00C94171469837A838B83C1
:100450009C832D833E834F835887CE010196BE0136
:10046000675F7F4F0E94D204CE010596BE016F5E8A
:100470007F4F0E94D2049985923088F0898982301A
:10048000C8F0943019F4823051F404C0843029F457
:10049000923081F482E790E0C6C0923049F420E0C7
:1004A0009A858A89981321E02A87CE010996BBC0D4
:1004B000823049F420E09A858A89981321E02A8BBA
:1004C000CE014196B0C02D843E844F8458886D88FB
:1004D0007E888F88988CEE24FF248701AA24BB2471
:1004E000650140E050E060E070E0E0E0F0E0C10174
:1004F00081709070892BE9F0E60CF71C081D191D1E
:100500009A01AB012A0D3B1D4C1D5D1D80E090E062
:10051000A0E0B0E0E614F7040805190520F481E036
:1005200090E0A0E0B0E0BA01A901480F591F6A1F8E
:100530007B1FAA0CBB1CCC1CDD1C97FE08C081E0F5
:1005400090E0A0E0B0E0A82AB92ACA2ADB2A3196B6
:10055000E032F10549F0660C771C881C991C569412
:10056000479437942794C3CFFA85EA892B893C892D
:100570008B859C85280F391F2E5F3F4F17C0CA01FE
:1005800081709070892B61F016950795F794E79428
:1005900080E090E0A0E0B0E8E82AF92A0A2B1B2BC3
:1005A00076956795579547952F5F3F4F77FDE7CF36
:1005B0000CC0440F551F661F771F17FD4160EE0CDE
:1005C000FF1C001F111F21503040403090E05907A0
:1005D00090E0690790E4790760F32B8F3C8FDB0193
:1005E000CA018F779070A070B07080349105A1051A
:1005F000B10561F447FD0AC0E114F10401051105DC
:1006000029F0405C5F4F6F4F7F4F40781A8EFE1786
:1006100011F081E08A8F4D8F5E8F6F8F78A383E01A
:10062000898FCE0149960E94FD03A096E2E10C94C9
:100630003314A8E1B0E0EFE1F3E00C9423146983F4
:100640007A838B839C832D833E834F83588789E0F5
:10065000E82EF12CEC0EFD1ECE010196B7010E9492
:10066000D2048E010F5E1F4FCE010596B8010E9485
:10067000D2048985823040F08989823028F0C70110
:10068000B8010E944A0501C08FEF6896E6E00C941D
:100690003F14A8E1B0E0EFE4F3E00C942314698385
:1006A0007A838B839C832D833E834F83588789E095
:1006B000E82EF12CEC0EFD1ECE010196B7010E9432
:1006C000D2048E010F5E1F4FCE010596B8010E9425
:1006D000D2048985823040F08989823028F0C701B0
:1006E000B8010E944A0501C08FEF6896E6E00C94BD
:1006F0003F14A8E1B0E0EFE7F3E00C942314698322
:100700007A838B839C832D833E834F83588789E034
:10071000E82EF12CEC0EFD1ECE010196B7010E94D1
:10072000D2048E010F5E1F4FCE010596B8010E94C4
:10073000D2048985823040F08989823028F0C7014F
:10074000B8010E944A0501C081E06896E6E00C9479
:100750003F14ACE0B0E0EFEAF3E00C9427146983B7
:100760007A838B839C83CE010196BE016B5F7F4FA2
:100770000E94D2048D81823061F1823050F1843048
:1007800021F48E81882351F12EC02F81388537FDC9
:1007900020C06E812F3131051CF06623F9F023C093
:1007A0008EE190E0821B930B29853A854B855C8511
:1007B00004C056954795379527958A95D2F76623B5
:1007C000B1F050954095309521953F4F4F4F5F4F79
:1007D0000EC020E030E040E050E009C02FEF3FEFD6
:1007E0004FEF5FE704C020E030E040E050E8B9019F
:1007F000CA012C96E2E00C944314DF92EF92FF9230
:100800000F931F93FC01E480F58006811781D1804E
:100810008081823048F480E090E0A0E1B0E0E82AF6
:10082000F92A0A2B1B2BA5C0843009F49FC0823003
:1008300021F4EE24FF24870105C0E114F104010531
:10084000110519F4E0E0F0E096C0628173819FEF3A
:10085000623879070CF05BC022E83FEF261B370BAC
:100860002A3131052CF020E030E040E050E02AC091
:10087000B801A701022E04C0769567955795479554
:100880000A94D2F781E090E0A0E0B0E004C0880FC5
:10089000991FAA1FBB1F2A95D2F70197A109B10979
:1008A0008E219F21A023B1230097A105B10521F03E
:1008B00081E090E0A0E0B0E09A01AB01282B392B59
:1008C0004A2B5B2BDA01C9018F779070A070B07052
:1008D00080349105A105B10539F427FF09C0205CDA
:1008E0003F4F4F4F5F4F04C0215C3F4F4F4F5F4F13
:1008F000E0E0F0E02030A0E03A07A0E04A07A0E402
:100900005A0710F0E1E0F0E079018A0127C0603871
:10091000710564F5FB01E158FF4FD801C7018F77DE
:100920009070A070B07080349105A105B10539F4C4
:10093000E7FE0DC080E490E0A0E0B0E004C08FE3EB
:1009400090E0A0E0B0E0E80EF91E0A1F1B1F17FFA1
:1009500005C016950795F794E794319687E01695AC
:100960000795F794E7948A95D1F705C0EE24FF2404
:100970008701EFEFF0E06E2F679566276795902F60
:100980009F77D794DD24D7948E2F8695492F462BB9
:10099000582F5D29B701CA011F910F91FF90EF9069
:1009A000DF900895FC01DB01408151812281622F9B
:1009B0006F7770E0221F2227221F9381892F880FD3
:1009C000822B282F30E0991F9927991F11969C930D
:1009D000119721153105A9F54115510561057105DD
:1009E00011F482E037C082E89FEF13969C938E93B8
:1009F00012979A01AB0167E0220F331F441F551F66
:100A00006A95D1F783E08C930DC0220F331F441FEA
:100A1000551F12968D919C911397019713969C9355
:100A20008E931297203080E0380780E0480780E4FA
:100A3000580758F314962D933D934D935C93179755
:100A400008952F3F310579F4411551056105710570
:100A500019F484E08C93089564FF03C081E08C93C3
:100A600012C01C9210C02F57304013963C932E9307
:100A7000129783E08C9387E0440F551F661F771F02
:100A80008A95D1F7706414964D935D936D937C9322
:100A9000179708951F93DC01FB019C91923008F495
:100AA00047C08081823008F443C0943051F41196DD
:100AB0001C91843099F58181682F70E0611B710968
:100AC0003FC0843021F0923031F48230B9F181811D
:100AD000882389F12DC011961C9111978230F1F075
:100AE00081811817D9F412962D913C911397828128
:100AF00093818217930794F028173907BCF0149656
:100B00008D919D910D90BC91A02D248135814681C0
:100B10005781281739074A075B0718F4112341F05A
:100B20000AC082179307A407B50740F4112319F0F0
:100B300061E070E005C06FEF7FEF02C060E070E041
:100B4000CB011F9108951F920F920FB60F9211249F
:100B50002F933F934F935F936F937F938F939F93C5
:100B6000AF93BF93EF93FF93DF93CF93CDB7DEB7F0
:100B7000E0917A00F0917B000995CF91DF91FF9190
:100B8000EF91BF91AF919F918F917F916F915F9105
:100B90004F913F912F910F900FBE0F901F9018957E
:100BA000DF93CF9300D0CDB7DEB79A838983898155
:100BB0009A8190937B0080937A000F900F90CF9151
:100BC000DF910895DF93CF93CDB7DEB7A6E2B0E013
:100BD000E6E2F0E08081877F8C93CF91DF910895EA
:100BE000DF93CF9300D000D0CDB7DEB7E4E2F0E0E2
:100BF0008081282F30E0E5E2F0E08081882F90E0CE
:100C0000982F8827822B932BAA2797FDA095BA2F80
:100C100089839A83AB83BC8389819A81AB81BC81B0
:100C2000BC01CD010F900F900F900F90CF91DF91ED
:100C30000895DF93CF93CDB7DEB7A6E2B0E0E6E24A
:100C4000F0E0808180618C93CF91DF910895DF93F4
:100C5000CF93CDB7DEB7A6E2B0E0E6E2F0E0808168
:100C600080648C93CF91DF910895DF93CF930F929F
:100C7000CDB7DEB7E6E2F0E0808182958F708170BB
:100C8000898389810F90CF91DF9108950F93DF932E
:100C9000CF93CDB7DEB727970FB6F894DEBF0FBE60
:100CA000CDBF89836A834B832C830D8380E0698168
:100CB00040E00E946B098A81882379F4A7E2B0E0C2
:100CC000E7E2F0E080818F778C93A7E2B0E0E7E283
:100CD000F0E080818F7B8C9323C08A81813079F40E
:100CE000A7E2B0E0E7E2F0E080818F778C93A7E2A3
:100CF000B0E0E7E2F0E0808180648C9311C08A81EB
:100D0000823071F4A7E2B0E0E7E2F0E08081806831
:100D10008C93A7E2B0E0E7E2F0E0808180648C93FE
:100D20008C81882341F4A7E2B0E0E7E2F0E0808123
:100D30008F7D8C930AC08C81813039F4A7E2B0E0BA
:100D4000E7E2F0E0808180628C938D81882341F41A
:100D5000A6E2B0E0E6E2F0E080818F7D8C930AC0ED
:100D60008D81813039F4A6E2B0E0E6E2F0E08081E6
:100D700080628C938B81813079F4A6E2B0E0E6E268
:100D8000F0E0808188608C93AFE5B0E0EFE5F0E0C3
:100D9000808180688C930AC08B81882339F4A6E215
:100DA000B0E0E6E2F0E08081877F8C938981282F94
:100DB00030E03F832E838E819F818330910509F43B
:100DC0009BC02E813F81243031058CF48E819F8120
:100DD0008130910509F448C02E813F8122303105D0
:100DE0000CF066C08E819F810097D1F038C12E81B2
:100DF0003F812530310509F4C7C08E819F81853040
:100E000091050CF49DC02E813F812630310509F4F7
:100E1000DFC08E819F818730910509F4FDC01FC11D
:100E2000A7E2B0E0E7E2F0E080818F7E8C93A7E25A
:100E3000B0E0E7E2F0E08081877F8C93A7E2B0E04A
:100E4000E7E2F0E080818B7F8C93A7E2B0E0E7E2FD
:100E5000F0E080818D7F8C93A7E2B0E0E7E2F0E0E4
:100E600080818E7F8C93FBC0A7E2B0E0E7E2F0E0E8
:100E700080818F7E8C93A7E2B0E0E7E2F0E0808192
:100E8000877F8C93A7E2B0E0E7E2F0E080818B7F80
:100E90008C93A7E2B0E0E7E2F0E080818D7F8C9355
:100EA000A7E2B0E0E7E2F0E0808181608C93D7C0F8
:100EB000A7E2B0E0E7E2F0E080818F7E8C93A7E2CA
:100EC000B0E0E7E2F0E08081877F8C93A7E2B0E0BA
:100ED000E7E2F0E080818B7F8C93A7E2B0E0E7E26D
:100EE000F0E0808182608C93A7E2B0E0E7E2F0E07E
:100EF00080818E7F8C93B3C0A7E2B0E0E7E2F0E0A0
:100F000080818F7E8C93A7E2B0E0E7E2F0E0808101
:100F1000877F8C93A7E2B0E0E7E2F0E080818B7FEF
:100F20008C93A7E2B0E0E7E2F0E0808182608C93EE
:100F3000A7E2B0E0E7E2F0E0808181608C938FC0AF
:100F4000A7E2B0E0E7E2F0E080818F7E8C93A7E239
:100F5000B0E0E7E2F0E08081877F8C93A7E2B0E029
:100F6000E7E2F0E0808184608C93A7E2B0E0E7E202
:100F7000F0E080818D7F8C93A7E2B0E0E7E2F0E0C3
:100F800080818E7F8C936BC0A7E2B0E0E7E2F0E057
:100F900080818F7E8C93A7E2B0E0E7E2F0E0808171
:100FA000877F8C93A7E2B0E0E7E2F0E08081846085
:100FB0008C93A7E2B0E0E7E2F0E080818D7F8C9334
:100FC000A7E2B0E0E7E2F0E0808181608C9347C067
:100FD000A7E2B0E0E7E2F0E080818F7E8C93A7E2A9
:100FE000B0E0E7E2F0E08081877F8C93A7E2B0E099
:100FF000E7E2F0E0808184608C93A7E2B0E0E7E272
:10100000F0E0808182608C93A7E2B0E0E7E2F0E05C
:1010100080818E7F8C9323C0A7E2B0E0E7E2F0E00E
:1010200080818F7E8C93A7E2B0E0E7E2F0E08081E0
:10103000877F8C93A7E2B0E0E7E2F0E080818460F4
:101040008C93A7E2B0E0E7E2F0E0808182608C93CD
:10105000A7E2B0E0E7E2F0E0808181608C93A6E255
:10106000B0E0E6E2F0E0808180688C93A6E2B0E038
:10107000E6E2F0E0808180618C93A6E2B0E0E6E2F7
:10108000F0E0808184608C93A6E2B0E0E6E2F0E0DC
:10109000808182608C93A6E2B0E0E6E2F0E080819D
:1010A00081608C93A6E2B0E0E6E2F0E080818064AB
:1010B0008C9327960FB6F894DEBF0FBECDBFCF91AD
:1010C000DF910F910895DF93CF93CDB7DEB72797C8
:1010D0000FB6F894DEBF0FBECDBF89836A834B8302
:1010E0008981843008F0EEC08A81883008F0EAC037
:1010F0008B81813009F06FC08981282F30E03F83D8
:101100002E838E819F818130910549F12E813F810F
:10111000223031052CF48E819F81009761F0D2C07E
:101120002E813F812230310571F18E819F81833084
:101130009105E9F1C7C0ABE3B0E0EBE3F0E08081FB
:10114000482F8A81282F30E081E090E0022E02C0F3
:10115000880F991F0A94E2F7842B8C93B3C0A8E3FD
:10116000B0E0E8E3F0E08081482F8A81282F30E06A
:1011700081E090E0022E02C0880F991F0A94E2F7E6
:10118000842B8C939FC0A5E3B0E0E5E3F0E0808181
:10119000482F8A81282F30E081E090E0022E02C0A3
:1011A000880F991F0A94E2F7842B8C938BC0A2E3DB
:1011B000B0E0E2E3F0E08081482F8A81282F30E020
:1011C00081E090E0022E02C0880F991F0A94E2F796
:1011D000842B8C9377C08B81882309F073C089811D
:1011E000282F30E03D832C838C819D8181309105B7
:1011F00059F12C813D81223031052CF48C819D8167
:10120000009769F05FC02C813D812230310589F162
:101210008C819D818330910509F440C053C0ABE3BC
:10122000B0E0EBE3F0E08081482F8A81282F30E0A6
:1012300081E090E0022E02C0880F991F0A94E2F725
:10124000809584238C933EC0A8E3B0E0E8E3F0E00F
:101250008081482F8A81282F30E081E090E0022EA3
:1012600002C0880F991F0A94E2F7809584238C931B
:1012700029C0A5E3B0E0E5E3F0E08081482F8A8152
:10128000282F30E081E090E0022E02C0880F991FE5
:101290000A94E2F7809584238C9314C0A2E3B0E013
:1012A000E2E3F0E08081482F8A81282F30E081E05E
:1012B00090E0022E02C0880F991F0A94E2F78095F1
:1012C00084238C9327960FB6F894DEBF0FBECDBF54
:1012D000CF91DF910895DF93CF93CDB7DEB72797F6
:1012E0000FB6F894DEBF0FBECDBF89836A834B83F0
:1012F0008981843008F0EEC08A81883008F0EAC025
:101300008B81813009F06FC08981282F30E03F83C5
:101310002E838E819F818130910549F12E813F81FD
:10132000223031052CF48E819F81009761F0D2C06C
:101330002E813F812230310571F18E819F81833072
:101340009105E9F1C7C0AAE3B0E0EAE3F0E08081EB
:10135000482F8A81282F30E081E090E0022E02C0E1
:10136000880F991F0A94E2F7842B8C93B3C0A7E3EC
:10137000B0E0E7E3F0E08081482F8A81282F30E059
:1013800081E090E0022E02C0880F991F0A94E2F7D4
:10139000842B8C939FC0A4E3B0E0E4E3F0E0808171
:1013A000482F8A81282F30E081E090E0022E02C091
:1013B000880F991F0A94E2F7842B8C938BC0A1E3CA
:1013C000B0E0E1E3F0E08081482F8A81282F30E00F
:1013D00081E090E0022E02C0880F991F0A94E2F784
:1013E000842B8C9377C08B81882309F073C089810B
:1013F000282F30E03D832C838C819D8181309105A5
:1014000059F12C813D81223031052CF48C819D8154
:10141000009769F05FC02C813D812230310589F150
:101420008C819D818330910509F440C053C0AAE3AB
:10143000B0E0EAE3F0E08081482F8A81282F30E095
:1014400081E090E0022E02C0880F991F0A94E2F713
:10145000809584238C933EC0A7E3B0E0E7E3F0E0FF
:101460008081482F8A81282F30E081E090E0022E91
:1014700002C0880F991F0A94E2F7809584238C9309
:1014800029C0A4E3B0E0E4E3F0E08081482F8A8142
:10149000282F30E081E090E0022E02C0880F991FD3
:1014A0000A94E2F7809584238C9314C0A1E3B0E002
:1014B000E1E3F0E08081482F8A81282F30E081E04D
:1014C00090E0022E02C0880F991F0A94E2F78095DF
:1014D00084238C9327960FB6F894DEBF0FBECDBF42
:1014E000CF91DF910895DF93CF9300D000D00F927A
:1014F000CDB7DEB78A836B838A81843008F06EC0F3
:101500008B81883008F06AC08A81282F30E03D83C3
:101510002C834C815D814130510541F18C819D814D
:101520008230910534F42C813D812115310561F023
:1015300053C04C815D814230510551F18C819D81B8
:1015400083309105B9F148C0E9E3F0E08081282FAC
:1015500030E08B81882F90E0A90102C05595479516
:101560008A95E2F7CA018170898338C0E6E3F0E02A
:101570008081282F30E08B81882F90E0A90102C064
:10158000559547958A95E2F7CA018170898326C0EF
:10159000E3E3F0E08081282F30E08B81882F90E01A
:1015A000A90102C0559547958A95E2F7CA01817055
:1015B000898314C0E0E3F0E08081282F30E08B8144
:1015C000882F90E0A90102C0559547958A95E2F7CA
:1015D000CA018170898302C08FEF89838FEF89836D
:1015E00089810F900F900F900F900F90CF91DF9106
:1015F0000895DF93CF9300D000D0CDB7DEB78983B5
:101600006A838981282F30E03C832B838B819C81E6
:1016100081309105D1F02B813C81223031052CF4B1
:101620008B819C81009761F01EC02B813C81223010
:10163000310581F08B819C818330910581F013C04D
:10164000EAE3F0E08A8180830EC0E7E3F0E08A817C
:10165000808309C0E4E3F0E08A81808304C0E1E391
:10166000F0E08A8180830F900F900F900F90CF91C0
:10167000DF910895DF93CF9300D000D0CDB7DEB7D0
:1016800089836A838981282F30E03C832B838B8177
:101690009C8181309105D1F02B813C812230310534
:1016A0002CF48B819C81009761F01EC02B813C81C2
:1016B0002230310581F08B819C818330910581F04E
:1016C00013C0EBE3F0E08A8180830EC0E8E3F0E032
:1016D0008A81808309C0E5E3F0E08A81808304C0C9
:1016E000E2E3F0E08A8180830F900F900F900F90DB
:1016F000CF91DF910895DF93CF93CDB7DEB7E89711
:101700000FB6F894DEBF0FBECDBF83E06FEF0E942F
:10171000F90A81E065E041E00E946B0981E066E042
:1017200041E00E946B0981E067E041E00E946B09A3
:1017300080E090E0ACE0B2E48DAB9EABAFABB8AF75
:101740006DA97EA98FA998AD20E030E04AEF54E45E
:101750000E941F02DC01CB0189AB9AABABABBCABE7
:1017600069A97AA98BA99CA920E030E040E85FE351
:101770000E94790388232CF481E090E098AB8FA736
:101780003FC069A97AA98BA99CA920E03FEF4FE748
:1017900057E40E94190318164CF56DA97EA98FA96C
:1017A00098AD20E030E040E251E40E941F02DC01ED
:1017B000CB01BC01CD010E944900DC01CB0198ABFB
:1017C0008FA70FC088EC90E09EA78DA78DA59EA542
:1017D0000197F1F79EA78DA78FA598A9019798ABC0
:1017E0008FA78FA598A9009769F714C069A97AA94E
:1017F0008BA99CA90E944900DC01CB0198AB8FA763
:101800008FA598A99CA78BA78BA59CA50197F1F7FD
:101810009CA78BA788E30E945C0F80E090E0A0E883
:10182000BFE38FA398A7A9A7BAA76FA178A589A599
:101830009AA520E030E04AEF54E40E941F02DC0148
:10184000CB018BA39CA3ADA3BEA36BA17CA18DA157
:101850009EA120E030E040E85FE30E947903882306
:101860002CF481E090E09AA389A33FC06BA17CA1F6
:101870008DA19EA120E03FEF4FE757E40E9419039E
:1018800018164CF56FA178A589A59AA520E030E03F
:1018900040E251E40E941F02DC01CB01BC01CD01FA
:1018A0000E944900DC01CB019AA389A30FC088ECF8
:1018B00090E098A38F8F8F8D98A10197F1F798A34F
:1018C0008F8F89A19AA101979AA389A389A19AA12F
:1018D000009769F714C06BA17CA18DA19EA10E9405
:1018E0004900DC01CB019AA389A389A19AA19E8F0B
:1018F0008D8F8D8D9E8D0197F1F79E8F8D8F8FE04F
:101900000E945C0F80E090E0A0E8BFE3898F9A8F8F
:10191000AB8FBC8F698D7A8D8B8D9C8D20E030E0F4
:101920004AEF54E40E941F02DC01CB018D8B9E8B99
:10193000AF8BB88F6D897E898F89988D20E030E0DC
:1019400040E85FE30E94790388232CF481E090E073
:101950009C8B8B8B3FC06D897E898F89988D20E011
:101960003FEF4FE757E40E94190318164CF5698DB5
:101970007A8D8B8D9C8D20E030E040E251E40E9416
:101980001F02DC01CB01BC01CD010E944900DC013A
:10199000CB019C8B8B8B0FC088EC90E09A8B898B52
:1019A00089899A890197F1F79A8B898B8B899C8910
:1019B00001979C8B8B8B8B899C89009769F714C04E
:1019C0006D897E898F89988D0E944900DC01CB0149
:1019D0009C8B8B8B8B899C89988B8F878F85988923
:1019E0000197F1F7988B8F8781E00E945C0F80E070
:1019F00090E0A0E0B0E48B879C87AD87BE876B85C5
:101A00007C858D859E8520E030E04AEF54E40E947D
:101A10001F02DC01CB018F839887A987BA876F816A
:101A2000788589859A8520E030E040E85FE30E9470
:101A3000790388232CF481E090E09E838D833FC05E
:101A40006F81788589859A8520E03FEF4FE757E4DD
:101A50000E94190318164CF56B857C858D859E8533
:101A600020E030E040E251E40E941F02DC01CB01A3
:101A7000BC01CD010E944900DC01CB019E838D8316
:101A80000FC088EC90E09C838B838B819C810197B5
:101A9000F1F79C838B838D819E8101979E838D833B
:101AA0008D819E81009769F714C06F817885898543
:101AB0009A850E944900DC01CB019E838D838D8134
:101AC0009E819A83898389819A810197F1F79A830C
:101AD000898386E00E945C0FE8960FB6F894DEBF1B
:101AE0000FBECDBFCF91DF910895DF93CF93CDB7D8
:101AF000DEB7E8970FB6F894DEBF0FBECDBF80E02B
:101B000090E0ACE0B2E48DAB9EABAFABB8AF6DA9EB
:101B10007EA98FA998AD20E030E04AEF54E40E94FE
:101B20001F02DC01CB0189AB9AABABABBCAB69A9A3
:101B30007AA98BA99CA920E030E040E85FE30E94ED
:101B4000790388232CF481E090E098AB8FA73FC005
:101B500069A97AA98BA99CA920E03FEF4FE757E438
:101B60000E94190318164CF56DA97EA98FA998AD8E
:101B700020E030E040E251E40E941F02DC01CB0192
:101B8000BC01CD010E944900DC01CB0198AB8FA7BD
:101B90000FC088EC90E09EA78DA78DA59EA501970C
:101BA000F1F79EA78DA78FA598A9019798AB8FA74E
:101BB0008FA598A9009769F714C069A97AA98BA97C
:101BC0009CA90E944900DC01CB0198AB8FA78FA58F
:101BD00098A99CA78BA78BA59CA50197F1F79CA71B
:101BE0008BA780EA0E945C0F80E090E0A0E8BFE352
:101BF0008FA398A7A9A7BAA76FA178A589A59AA529
:101C000020E030E04AEF54E40E941F02DC01CB01E7
:101C10008BA39CA3ADA3BEA36BA17CA18DA19EA110
:101C200020E030E040E85FE30E94790388232CF451
:101C300081E090E09AA389A33FC06BA17CA18DA114
:101C40009EA120E03FEF4FE757E40E9419031816CA
:101C50004CF56FA178A589A59AA520E030E040E277
:101C600051E40E941F02DC01CB01BC01CD010E94A6
:101C70004900DC01CB019AA389A30FC088EC90E056
:101C800098A38F8F8F8D98A10197F1F798A38F8FCD
:101C900089A19AA101979AA389A389A19AA10097E2
:101CA00069F714C06BA17CA18DA19EA10E9449007F
:101CB000DC01CB019AA389A389A19AA19E8F8D8F64
:101CC0008D8D9E8D0197F1F79E8F8D8F80EF0E94F5
:101CD0005C0F80E090E0A0E8BFE3898F9A8FAB8F24
:101CE000BC8F698D7A8D8B8D9C8D20E030E04AEF22
:101CF00054E40E941F02DC01CB018D8B9E8BAF8BC5
:101D0000B88F6D897E898F89988D20E030E040E81A
:101D10005FE30E94790388232CF481E090E09C8BA0
:101D20008B8B3FC06D897E898F89988D20E03FEF36
:101D30004FE757E40E94190318164CF5698D7A8D08
:101D40008B8D9C8D20E030E040E251E40E941F0228
:101D5000DC01CB01BC01CD010E944900DC01CB01BB
:101D60009C8B8B8B0FC088EC90E09A8B898B898938
:101D70009A890197F1F79A8B898B8B899C890197B6
:101D80009C8B8B8B8B899C89009769F714C06D891C
:101D90007E898F89988D0E944900DC01CB019C8B44
:101DA0008B8B8B899C89988B8F878F8598890197DE
:101DB000F1F7988B8F8780E10E945C0F80E090E0C4
:101DC000A0E0B0E48B879C87AD87BE876B857C8560
:101DD0008D859E8520E030E04AEF54E40E941F028A
:101DE000DC01CB018F839887A987BA876F817885BB
:101DF00089859A8520E030E040E85FE30E9479031E
:101E000088232CF481E090E09E838D833FC06F8116
:101E1000788589859A8520E03FEF4FE757E40E9457
:101E2000190318164CF56B857C858D859E8520E001
:101E300030E040E251E40E941F02DC01CB01BC0112
:101E4000CD010E944900DC01CB019E838D830FC030
:101E500088EC90E09C838B838B819C810197F1F7C8
:101E60009C838B838D819E8101979E838D838D8141
:101E70009E81009769F714C06F81788589859A855E
:101E80000E944900DC01CB019E838D838D819E8160
:101E90009A83898389819A810197F1F79A8389834B
:101EA00080E60E945C0FE8960FB6F894DEBF0FBE86
:101EB000CDBFCF91DF910895DF93CF93CDB7DEB73C
:101EC0002F970FB6F894DEBF0FBECDBF8F8781E08E
:101ED00067E040E00E94630881E066E040E00E9425
:101EE000630883E06F850E943A0B81E065E041E082
:101EF0000E94630880E090E0A0E8BFE38B879C87A6
:101F0000AD87BE876B857C858D859E8520E030E022
:101F10004AEF54E40E941F02DC01CB018F839887B3
:101F2000A987BA876F81788589859A8520E030E016
:101F300040E85FE30E94790388232CF481E090E07D
:101F40009E838D833FC06F81788589859A8520E047
:101F50003FEF4FE757E40E94190318164CF56B85C5
:101F60007C858D859E8520E030E040E251E40E9432
:101F70001F02DC01CB01BC01CD010E944900DC0144
:101F8000CB019E838D830FC088EC90E09C838B8374
:101F90008B819C810197F1F79C838B838D819E813E
:101FA00001979E838D838D819E81009769F714C070
:101FB0006F81788589859A850E944900DC01CB0173
:101FC0009E838D838D819E819A83898389819A8165
:101FD0000197F1F79A83898381E065E040E00E94F0
:101FE00063082F960FB6F894DEBF0FBECDBFCF911A
:101FF000DF910895DF93CF93CDB7DEB72F970FB65C
:10200000F894DEBF0FBECDBF8F8781E067E041E06F
:102010000E94630881E066E040E00E94630883E07C
:102020006F850E943A0B81E065E041E00E94630801
:1020300080E090E0A0E8BFE38B879C87AD87BE87F8
:102040006B857C858D859E8520E030E04AEF54E4E9
:102050000E941F02DC01CB018F839887A987BA8772
:102060006F81788589859A8520E030E040E85FE3DC
:102070000E94790388232CF481E090E09E838D8375
:102080003FC06F81788589859A8520E03FEF4FE7D3
:1020900057E40E94190318164CF56B857C858D85D5
:1020A0009E8520E030E040E251E40E941F02DC0106
:1020B000CB01BC01CD010E944900DC01CB019E8314
:1020C0008D830FC088EC90E09C838B838B819C81F7
:1020D0000197F1F79C838B838D819E8101979E836D
:1020E0008D838D819E81009769F714C06F817885FB
:1020F00089859A850E944900DC01CB019E838D83EE
:102100008D819E819A83898389819A810197F1F7D4
:102110009A83898381E065E040E00E9463082F96FE
:102120000FB6F894DEBF0FBECDBFCF91DF910895FB
:10213000DF93CF9300D00F92CDB7DEB79B838A8316
:1021400019820EC08981282F30E08A819B81FC0191
:10215000E20FF31F80810E94FA0F89818F5F8983CC
:102160008981282F30E08A819B81FC01E20FF31FD7
:102170008081882339F70F900F900F90CF91DF91D6
:102180000895DF93CF9300D0CDB7DEB789836A83FC
:102190008981882329F48A8180580E945C0F07C0B6
:1021A0008981813021F48A8180540E945C0F0F90D4
:1021B0000F90CF91DF910895DF93CF93CDB7DEB726
:1021C00028970FB6F894DEBF0FBECDBF9E838D83D8
:1021D00078876F8381E090E09C838B8381E090E03F
:1021E0009A83898381E090E09C838B8313C029814B
:1021F0003A818D819E81AC01249FC001259F900D65
:10220000349F900D11249A8389838B819C81019640
:102210009C838B832B813C818F81988582179307C8
:1022200034F789819A8128960FB6F894DEBF0FBEE5
:10223000CDBFCF91DF910895EF92FF920F931F933F
:10224000DF93CF93CDB7DEB72F970FB6F894DEBFED
:102250000FBECDBF6C877D878E879F878C859D85C0
:10226000AE85BF8588879987AA87BB871C821D8218
:102270001E821F821A82198215C08A818F5F8A830B
:102280008C859D85AE85BF852AE030E040E050E03A
:10229000BC01CD010E94FC13DA01C9018C879D8726
:1022A000AE87BF878C859D85AE85BF850097A105CC
:1022B000B10519F788859985AA85BB858C879D8787
:1022C000AE87BF878C859D85AE85BF852AE030E0CF
:1022D00040E050E0BC01CD010E94FC13DC01CB01C9
:1022E0000097A105B10511F481E089838C859D8556
:1022F000AE85BF8524E630E040E050E0BC01CD0172
:102300000E94FC13DC01CB010097A105B10511F47B
:1023100082E089838C859D85AE85BF8528EE33E07C
:1023200040E050E0BC01CD010E94FC13DC01CB0178
:102330000097A105B10511F483E089838C859D8503
:10234000AE85BF8520E137E240E050E0BC01CD0121
:102350000E94FC13DC01CB010097A105B10511F42B
:1023600084E089838C859D85AE85BF8520EA36E82B
:1023700041E050E0BC01CD010E94FC13DC01CB0127
:102380000097A105B10511F485E089838C859D85B1
:10239000AE85BF8520E432E44FE050E0BC01CD01C2
:1023A0000E94FC13DC01CB010097A105B10511F4DB
:1023B00086E089838C859D85AE85BF8520E836E9DA
:1023C00048E950E0BC01CD010E94FC13DC01CB01C7
:1023D0000097A105B10511F487E089838C859D855F
:1023E000AE85BF8520E031EE45EF55E0BC01CD0163
:1023F0000E94FC13DC01CB010097A105B10511F48B
:1024000088E089838C859D85AE85BF8520E03AEC88
:102410004AE95BE3BC01CD010E94FC13DC01CB0166
:102420000097A105B10511F489E089838A818B8326
:1024300048C08C859D85AE85BF852AE030E040E0B0
:1024400050E0BC01CD010E94FC13DC01CB017C01FA
:102450008D018B81992787FD90959C0121503040FB
:102460008AE090E0B9010E94DC109C01442737FD0E
:102470004095542FC801B7010E94BB139B01AC01CA
:102480008C819D81AE81BF81820F931FA41FB51FD8
:102490008C839D83AE83BF838C859D85AE85BF85F0
:1024A0002AE030E040E050E0BC01CD010E94FC1386
:1024B000DA01C9018C879D87AE87BF878B818150E8
:1024C0008B838B8118160CF4B4CF25C08C819D8131
:1024D000AE81BF812AE030E040E050E0BC01CD0198
:1024E0000E94FC13DC01CB018B838B81805D0E94F9
:1024F000FA0F8C819D81AE81BF812AE030E040E0FF
:1025000050E0BC01CD010E94FC13DA01C9018C83AB
:102510009D83AE83BF838C819D81AE81BF810097F7
:10252000A105B10599F61B8206C080E30E94FA0F4F
:102530008B818F5F8B839B8189819817B4F32F9652
:102540000FB6F894DEBF0FBECDBFCF91DF911F91C4
:102550000F91FF90EF900895DF93CF93CDB7DEB743
:1025600081E00E945C0FCF91DF910895DF93CF93BC
:10257000CDB7DEB782E00E945C0FCF91DF91089566
:10258000DF93CF93CDB7DEB78CE10E945C0FCF9184
:10259000DF910895DF93CF93CDB7DEB788E10E9436
:1025A0005C0FCF91DF910895DF93CF93CDB7DEB766
:1025B0006E970FB6F894DEBF0FBECDBF0E94F00538
:1025C000DC01CB018B8B9C8BAD8BBE8B8B899C896B
:1025D000AD89BE8928E833E140E050E0BC01CD017F
:1025E0000E94BB13DC01CB01072E7AE0B695A795BC
:1025F000979587957A95D1F7702D8F87988BA98BB2
:10260000BA8B8F859889A989BA892AE030E040E0A1
:1026100050E0BC01CD010E94DA13DA01C9018F8BB1
:10262000988FA98FBA8F8F89988DA98DBA8D8A308E
:102630009105A105B10538F40E94AC1280E690E046
:102640000E94981006C00E94AC1288E690E00E949A
:1026500098100E94270680E090E0AAE7B4E48B87F8
:102660009C87AD87BE876B857C858D859E8520E0A8
:1026700030E04AEF54E40E941F02DC01CB018F835B
:102680009887A987BA876F81788589859A8520E0A0
:1026900030E040E85FE30E94790388232CF481E076
:1026A00090E09E838D833FC06F81788589859A8570
:1026B00020E03FEF4FE757E40E94190318164CF54E
:1026C0006B857C858D859E8520E030E040E251E47D
:1026D0000E941F02DC01CB01BC01CD010E94490018
:1026E000DC01CB019E838D830FC088EC90E09C833E
:1026F0008B838B819C810197F1F79C838B838D81E8
:102700009E8101979E838D838D819E81009769F7BD
:1027100014C06F81788589859A850E944900DC0103
:10272000CB019E838D838D819E819A83898389814C
:102730009A810197F1F79A8389836E960FB6F89480
:10274000DEBF0FBECDBFCF91DF9108950F93DF9312
:10275000CF93CDB7DEB70E947B0B0E94AC1284ED05
:1027600092E10E94D00580E061E041E020E000E0DD
:102770000E944606FFCF629FD001739FF001829FA7
:10278000E00DF11D649FE00DF11D929FF00D839F00
:10279000F00D749FF00D659FF00D9927729FB00D9D
:1027A000E11DF91F639FB00DE11DF91FBD01CF01B0
:1027B00011240895A1E21A2EAA1BBB1BFD010DC016
:1027C000AA1FBB1FEE1FFF1FA217B307E407F507E1
:1027D00020F0A21BB30BE40BF50B661F771F881FBD
:1027E000991F1A9469F760957095809590959B0153
:1027F000AC01BD01CF01089597FB092E05260ED02F
:1028000057FD04D0D7DF0AD0001C38F4509540950E
:10281000309521953F4F4F4F5F4F0895F6F79095B4
:102820008095709561957F4F8F4F9F4F08952F92A0
:102830003F924F925F926F927F928F929F92AF9250
:10284000BF92CF92DF92EF92FF920F931F93CF939D
:10285000DF93CDB7DEB7CA1BDB0B0FB6F894DEBF34
:102860000FBECDBF09942A88398848885F846E845A
:102870007D848C849B84AA84B984C884DF80EE80A4
:10288000FD800C811B81AA81B981CE0FD11D0FB6AD
:10289000F894DEBF0FBECDBFED010895F894FFCFD1
:1028A00020736C65657020002077616B6520757002
:0A28B00020000000000000000000FE
:00000001FF
